:020000040800F2
:10000000001000203D330008F5320008F7320008E8
:1000100000000000000000000000000000000000E0
:10002000000000000000000000000000F93200089D
:100030000000000000000000FB320008FD32000854
:100040008D330008000000008D3300088D33000858
:100050008D3300088D3300088D3300088D33000880
:10006000000000008D3300088D3300088D33000838
:100070008D3300088D3300088D3300080000000028
:100080008D33000800000000000000008D330008E0
:10009000000000008D3300088D3300088D33000808
:1000A000000000008D330008000000008D330008C0
:1000B0000000000000000000000000000000000040
:1000C00010B5064C2378002B07D1054B002B02D02E
:1000D000044800E000BF0123237010BD740000201D
:1000E00000000000683D0008084B10B5002B03D04D
:1000F0000749084800E000BF07480368002B00D10B
:1001000010BD064B002BFBD09847F9E7000000001C
:1001100078000020683D0008740000200000000006
:1001200002B4714649084900095C49008E4402BC8A
:100130007047C046002243088B4274D303098B42A8
:100140005FD3030A8B4244D3030B8B4228D3030CA7
:100150008B420DD3FF22090212BA030C8B4202D349
:100160001212090265D0030B8B4219D300E0090A71
:10017000C30B8B4201D3CB03C01A5241830B8B427A
:1001800001D38B03C01A5241430B8B4201D34B0363
:10019000C01A5241030B8B4201D30B03C01A5241C8
:1001A000C30A8B4201D3CB02C01A5241830A8B424D
:1001B00001D38B02C01A5241430A8B4201D34B0236
:1001C000C01A5241030A8B4201D30B02C01A52419A
:1001D000CDD2C3098B4201D3CB01C01A524183094E
:1001E0008B4201D38B01C01A524143098B4201D388
:1001F0004B01C01A524103098B4201D30B01C01AB3
:100200005241C3088B4201D3CB00C01A524183082C
:100210008B4201D38B00C01A524143088B4201D359
:100220004B00C01A5241411A00D2014652411046B9
:100230007047FFE701B5002000F0F0F802BDC046AE
:100240000029F7D076E7704703460B437FD400229E
:1002500043088B4274D303098B425FD3030A8B425A
:1002600044D3030B8B4228D3030C8B420DD3FF22C4
:10027000090212BA030C8B4202D31212090265D092
:10028000030B8B4219D300E0090AC30B8B4201D345
:10029000CB03C01A5241830B8B4201D38B03C01A8C
:1002A0005241430B8B4201D34B03C01A5241030B03
:1002B0008B4201D30B03C01A5241C30A8B4201D3B4
:1002C000CB02C01A5241830A8B4201D38B02C01A5F
:1002D0005241430A8B4201D34B02C01A5241030AD6
:1002E0008B4201D30B02C01A5241CDD2C3098B42BB
:1002F00001D3CB01C01A524183098B4201D38B0138
:10030000C01A524143098B4201D34B01C01A5241DA
:1003100003098B4201D30B01C01A5241C3088B421F
:1003200001D3CB00C01A524183088B4201D38B000A
:10033000C01A524143088B4201D34B00C01A5241AC
:10034000411A00D201465241104670475DE0CA0F83
:1003500000D04942031000D34042534000229C4643
:1003600003098B422DD3030A8B4212D3FC2289014D
:1003700012BA030A8B420CD3890192118B4208D323
:10038000890192118B4204D389013AD0921100E085
:100390008909C3098B4201D3CB01C01A5241830999
:1003A0008B4201D38B01C01A524143098B4201D3C6
:1003B0004B01C01A524103098B4201D30B01C01AF1
:1003C0005241C3088B4201D3CB00C01A524183086B
:1003D0008B4201D38B00C01A5241D9D243088B42C1
:1003E00001D34B00C01A5241411A00D20146634664
:1003F00052415B10104601D34042002B00D54942C8
:10040000704763465B1000D3404201B5002000F006
:1004100005F802BD0029F8D016E770477047C046BE
:100420008446101C62468C46191C634600E0C04698
:100430001FB500F0E1FB002801D40021C8421FBD18
:1004400010B500F03BFB4042013010BD10B500F08C
:10045000D3FB002801DB002010BD012010BDC046E9
:1004600010B500F0C9FB002801DD002010BD0120FF
:1004700010BDC04610B500F05BFB002801DC002079
:1004800010BD012010BDC04610B500F051FB002882
:1004900001DA002010BD012010BDC046F8B5454668
:1004A000DE4657464E460C03E0B54E00C90F88465F
:1004B0000D00610A440F0C43C70019035800DB0FFD
:1004C0009B464B0A510F0B43760D400D1900D2008D
:1004D000D84500D1AEE0351A002D00DCF6E000284A
:1004E0000FD1134300D1DBE06B1E002B00D037E1AE
:1004F000BA1A9742BF41641A7F42E41B01261700D3
:1005000024E0C64B9E424DD080231B041943382D56
:1005100000DD07E11F2D00DD38E12020431B9A4656
:100520000B0050468340994613004846EB40184361
:10053000030050468240501E8241E9401A43BA1AD5
:10054000611A9742A441170064420C1B230262D532
:100550006402650A002D00D1DFE0280001F096FA60
:100560000300083B1F2B00DDD2E020223C00D21A02
:100570009D40D4409F4025439E4200DDC4E09E1B29
:10058000731C1F2B00DDF1E0202238002900D21A55
:10059000D840914097402C000143781E8741DC40B1
:1005A00000260F437B0709D00F233B40042B05D0C7
:1005B0003B1DBB42BF417F42E4191F0023022CD5E3
:1005C000964B01369E4200D19AE04546944BFF0877
:1005D0001C406007760564020743240B760D00215A
:1005E0002403230B0C0D8F4A24051C4314403305B0
:1005F00023435B00ED075B082B43380019003CBC2C
:1006000090469946A246AB46F8BD6446044300D1E5
:1006100011E2040067467B07C6D145466007FF0824
:100620000743E4087D4B9E4230D024037605240B1B
:10063000760DD4E7331A9A46002B78DD002831D0A6
:1006400076488642AED08020000401435346382BC2
:1006500000DCE9E00A43511E8A410021D219BA4266
:10066000BF4109197C4217000C192302D3D56B4BEB
:1006700001369E4200D13AE10120694B1C407B08C3
:1006800007401F43E007074364088BE723003B4311
:1006900000D1CBE18022120314432403240B9EE7F4
:1006A0002E007FE70800104300D1B4E0581E002858
:1006B00000D0DEE0BA18BA429B4164185B42E418ED
:1006C000170001262302A6D50226D5E7002D6ED1FC
:1006D000701C4005400D012800DCF9E0B81A844682
:1006E00087428041E51A40422D1A280200D489E051
:1006F000D71BBA4292411C1B5242A51AD84629E781
:100700004546002400276AE7454CF61A2C4049E785
:100710003D002838854000272EE7380001F0B6F963
:1007200020301DE70A43511E8A41002107E7002BB4
:1007300000D0F3E0701C43055B0D012B00DCADE045
:10074000364B984200D1D1E0BA18BA42BF41641882
:100750007F42E419E707520817436408060021E7BF
:100760002E48854200D193E01D00D0E629001F3EAF
:10077000F140202B00D18DE04022D31A9D402F4321
:100780007D1EAF4100240F43002644E72B000800E4
:10079000203BD8400300202D00D17DE04020451BA8
:1007A000A9400A43511E8A4100211A43C7E6002E80
:1007B00050D01A4EB04257D080266B42994636042C
:1007C00034434B46382B00DDD6E01F2B00DD35E1EE
:1007D0002026F51A2600AE40B2463E00DE40AC466A
:1007E000350056462E436546AF407D1EAF41DC4086
:1007F0003743D71BBA4292410C1B5242A41A06003F
:10080000D846A3E6644667462C4300D0A2E60025FE
:100810000026002706E71E00C4E6C046FF070000CA
:10082000FFFF7FFFFFFF0F801F2B63DC2020C31A19
:10083000080098409C46834653461000D840030069
:100840005846184363469A40531E9A415346024302
:10085000D94003E726003E4306D0EB439946002BE0
:10086000C7D0944EB042ACD10C0017000600D84659
:1008700098E6904B9A450BD08246E7E6002800D0D8
:100880009EE01800104300D1E9E01C001700D84694
:10089000884E87E6002572E7002182E723003B436C
:1008A000002E00D0ABE0002B00D1E7E00B0013439B
:1008B00000D177E6BA18BA42BF4164187F42E41902
:1008C000230200D4F2E07C4B17001C40060069E6CE
:1008D00020003843002ED1D100285BD11C001443E6
:1008E00000D1A8E01C001700D8465BE606000024F3
:1008F000002797E650460B002038C34099465346E0
:10090000202B00D195E0402350461B1A99400A4302
:10091000511E8A414B4600211A439FE6002E30D1DA
:1009200026003E4367D0DB439A46002B1CD0614E25
:10093000B04260D05346382B00DD96E01F2B00DD1F
:100940009FE02026F31A26009E409C46B34653465D
:100950003E00DE4033005E461E4363469F407B1EE2
:100960009F415346DC403743BF1897429241641879
:100970005242A418060078E627437C1EA7410024B3
:1009800037E74C4EB04236D080265B4236049A465A
:100990003443CFE71800104300D103E6B81A844669
:1009A0006745AD41E01A6D42401B050200D42CE6BC
:1009B000D71BBA4292411C1B5242A41AD846F1E5F9
:1009C0001800104300D163E7F80867070743802049
:1009D000E4080003044208D0DD08054205D1D2082E
:1009E000590711430F002C00D8467B0FE4001C432D
:1009F000FF00304ED6E50C0017000600D2E5002BB4
:100A000038D00B00134300D142E7F80867070743CB
:100A10008020E40800030442E7D0CB080342E4D17D
:100A2000D208490711430F001C00DEE7002700240D
:100A3000D5E500216BE700250027F3E54E462500AC
:100A4000203EF5404B462E00202B2DD04025ED1AA0
:100A5000AC4027437C1EA74100243743C9E68024CD
:100A600000252403134E0027DCE527437C1EA74105
:100A7000002479E70C0017000E4E93E50C001700D8
:100A800090E556462300203EF34099465346202BDE
:100A90000ED0402356469B1B9C4027437C1EA741FB
:100AA0004B4600241F435FE70024D2E71700B2E55E
:100AB0000024F2E7FF070000FFFF7FFFF0B54F467D
:100AC0004646D6465C00C0B51F03DB0F9A46174B5F
:100AD0000E034D0084468046360B6D0DC90F9146BE
:100AE0003F0B640D01209D4208D09C4201D0A542DD
:100AF0000BD01CBC90469946A246F0BD63463343DA
:100B0000F7D1AC42F5D13A43F3D10120BE42F0D146
:100B1000C845EED1514507D0002DEAD163461E43AA
:100B20003000461EB041E4E70020E2E7FF07000086
:100B3000F0B54546DE4657464E46E0B51F033D0B31
:100B40002C4F0E034C00AB465D008446360B640D03
:100B5000C90F90466D0DDB0FBC422AD0254FBD4218
:100B60002DD0002C0FD130430700814678427841C8
:100B7000C0B2002D17D15F463A4314D14B46002036
:100B8000002B0AD006E0002D02D15846024301D0C6
:100B9000994218D04842012108433CBC90469946EE
:100BA000A246AB46F0BD0028F2D00120013B18431D
:100BB000F3E737000743D1D002204042EDE75F461C
:100BC0001743CED0F8E7AC42E4DC03DA481E01213B
:100BD0000843E2E75E45DDD806D000205E45DCD262
:100BE0000123481E1843D8E7C445D3D80020C44584
:100BF000F6D3D2E7FF070000F0B54E464546DE4685
:100C000057465C00E0B51F03DB0F99462A4B0E03E5
:100C10004D00C90F8446360B6D0D8B4690463F0B39
:100C2000640D9D4220D0244B9C4222D0002D12D135
:100C3000304343424341DBB2002C1FD0002B0CD089
:100C40004B460120013B034318003CBC90469946AB
:100C5000A246AB46F0BD002C16D0CB4517D05B4664
:100C6000594201230B43EFE7310002230143EBD14B
:100C7000D9E7390002231143E6D1D7E73A43DDD162
:100C800000230028E0D0EAE73A43E6D1E7E7A542AF
:100C9000E5DC05DBBE42E2D807D00023BE42D3D25A
:100CA0005946012301390B43CEE7C445D7D8002369
:100CB000C445F5D3C8E7C046FF070000F0B5574666
:100CC0004546DE464E46E0B50C0398464E00230BE3
:100CD00087B0070092469B46760DCD0F002E6BD055
:100CE0006D4B9E4235D080245B46420F2404DB00CE
:100CF00014431C43C3009946684BA3469C460023FB
:100D000000276644029343461C035A00DB0F5046FB
:100D1000240B520D984600D176E05F4B9A426DD07D
:100D20008023410F1B040B435C49E4008C461C43A9
:100D3000C300002062444146B6186940721C01910C
:100D4000944607430F2F00D9B0E0554ABF00D2594F
:100D500097465B460343994600D087E000239B46B5
:100D6000023308270293CEE742460192022867D059
:100D7000032800D10EE2012800D062E10023002404
:100D80000022994601990140CDB2002112030B0DBA
:100D9000120B1B051343434A240513401C436400F4
:100DA000ED0764082C434846210007B03CBC904640
:100DB0009946A246AB46F0BD034399464FD05B46E9
:100DC000002B00D189E1584600F060FE03000B3B88
:100DD0001C2B00DD7AE11D22D31A3A0001005C468B
:100DE000DA4008398C4013008F4023439B46B946B4
:100DF00000232D4E0027361A029384E753462343DF
:100E00002AD10024022096E75346234320D0002C09
:100E100000D157E1200000F039FE03000B3B1C2BF2
:100E200000DD49E11D21CB1A51460200D94053464D
:100E3000083A944093400C431B4A121A00207AE768
:100E40000125019B144C1D400023002299469CE77C
:100E50000024002201206EE7534603206BE70023A5
:100E60009B4601330427002602934CE70323814667
:100E70000C27029347E7802200230025120399469E
:100E8000054C82E75C464B4602986FE75C464B4652
:100E9000019502986AE7C046FF07000001FCFFFFCA
:100EA000BC3D0008FFFF0F800DFCFFFF4A4649468E
:100EB000170C1A0C1B041B0C08041900000C4143EE
:100EC0001500884619007D4379430395894629001A
:100ED000150045434D44029545462D0CAA46029DFA
:100EE0005544A94506D98A46802149028946CA4403
:100EF00051460391290C0491414609042D04090C23
:100F000088462900250C24044144240C0591210025
:100F100041438846210079438A466843414650440C
:100F20008146080C48446F43824503D98021490219
:100F300089464F44010C8946390049440291414693
:100F40000F0404993F0C88460004C01980444146B0
:100F5000049159460F0C0904090C884659438A46E6
:100F600039005143894641464A435146090C8B4654
:100F70007B43D2185A44934203D980235B029B4699
:100F8000D94451460904090C8A46414661437C43D1
:100F9000130C12044B445244A1468A463C0041467D
:100FA0006C434D4351464D440F0C7D19A94503D95F
:100FB0008021490288464444049F0399B84641442D
:100FC0008B468345804141428846514608042F04A0
:100FD000000C3F18584602991018894690429241D9
:100FE0004F44BA46524299469346C244D144CB44F8
:100FF0008F42BF41C245894199459B4193459241EA
:101000007F4249422D0C52420F435B4213437F19EA
:10101000FF185B463C19DB0D059A64021C43430232
:1010200013435D1EAB415A46C00D034352021343A6
:10103000E20156D501205A0803401343E207134347
:1010400064085A48604400284DDD5A0709D00F2231
:101050001A40042A05D01A1D9A429B415B42E418AB
:101060001300E20104D58020514AC00014406044BE
:10107000504A904200DDE3E60125DB0862071A438F
:101080006402019B9146220B4405640D1D407CE6E1
:10109000802259461203114208D0144206D122433D
:1010A0001203120B45469946434C6EE65B461A43C3
:1010B0001203120B404C68E603005446283B9C4048
:1010C0000023B9E600F0E2FC2030A6E60300283B4E
:1010D0009F400023BB4699468AE600F0D7FC2030AB
:1010E00074E6B446ADE701252A1A382A06DD019BCD
:1010F00000241D4000230022994646E61F2A21DCD9
:1011000020252000AD1A1E00AB40A840D6405D1E31
:10111000AB4130431843D440430709D00F23034069
:10112000042B05D00300181D98429B415B42E41834
:10113000230221D50125019B01241D40002300220B
:10114000994622E61F2521006D42281AC140080059
:10115000202A1DD05F35AA1A944023435C1EA34168
:10116000072503431D400022002D09D00F22002433
:101170001A401800042AD6D1030065076402220B26
:10118000DB082B4301259946019B00241D40FCE50B
:101190000024E2E780220125120322430199120371
:1011A000120B0D409946044CEFE5C046FF030000CA
:1011B000FFFFFFFEFE070000FF070000F0B54646F8
:1011C000D6464F460C03C0B5CD0F4E00610A440F02
:1011D0000C43C1005800400D84468A460F00190395
:1011E000500F490A0143C648760DA846DB0FD200CE
:1011F000844500D1D8E001204340AB4200D1A6E0B5
:101200006046351A002D00DC05E1002810D10B00E6
:10121000134300D1D7E06B1E002B00D04BE15346A7
:101220009F1ABA458041641A4042241A01261EE0E2
:10123000B34B9E4248D080231B041943382D00DD58
:1012400019E11F2D00DD4CE120230F005B1B100076
:101250009A409F40E840531E9A41E9400743174394
:101260005346DF1B611ABA45A44164420C1B23029A
:1012700000D4C5E06402650A002D00D1F6E0280024
:1012800000F004FC0300083B1F2B00DDE9E02022F6
:101290003C00D21A9D40D4409F4025439E4200DD31
:1012A000DBE09E1B731C1F2B00DD0AE120223800AF
:1012B000D21A290097402C009140D8407A1E9741BD
:1012C000DC40002601430F437B0709D00F233B403E
:1012D000042B05D03B1DBB42BF417F42E4191F00D8
:1012E000230225D5864B01369E4200D1AFE0854BC7
:1012F00001251C4043466207FF0864027605174338
:10130000240B760D1D4000212403230B0C0D7E4A77
:1013100024051C431440330523435B00ED075B08A1
:101320002B43380019001CBC90469946A246F0BDDC
:10133000012543466207FF081743E4081D40704B30
:101340009E4236D024037605240B760DDBE76346F8
:10135000F31A002B00DC94E06046002835D0684882
:101360008642B1D080273F043943382B00DCFDE0B2
:101370000A43170000217A1E974157445745804180
:10138000091944420C1923023AD55D4B01369E429D
:1013900000D14BE101225B4B1C407B0817401F43EF
:1013A000E207174364088FE70800104300D024E7E2
:1013B00021E723003B4300D1B9E18022120314430B
:1013C0002403240B9FE72E007EE70800104300D182
:1013D000CAE0581E8446002800D0E7E05244524537
:1013E000804164184042241817000126230207D5C3
:1013F0000226CFE764462C4300D1B3E12C006746B8
:101400007B0700D062E76307FF081F4301254346BF
:10141000E4081D4093E7002D78D1751C6D056D0D16
:10142000012D00DCF2E05046801A8245BF41651A6A
:101430007F42ED1B8446280200D48CE05046171AE8
:10144000BA4292410C1B5542651B984614E7012590
:10145000434600241D40002755E72A4CF61A2C402D
:1014600032E73D0028388540002717E7380000F0B4
:101470000DFB203006E70A43170000217A1E974132
:10148000EEE6002B00D0E5E0731C9C465B055B0D8F
:10149000012B00DC9FE01A4B9C4500D1C5E0524473
:1014A00052458041641840422418E7075208174308
:1014B0006408664608E71248854200D185E01D00B1
:1014C000BCE629001F3EF140202B00D17FE04022E6
:1014D000D31A9D402F437D1EAF4100240F430026A9
:1014E0008EE72B000F00203BDF40202D71D04023E2
:1014F0005D1BA9400A43511E8A4100211743AFE6F4
:10150000FF070000FFFF7FFFFFFF0F80002E3ED090
:10151000B34EB44545D0802636046D423443382D51
:1015200000DDA8E01F2D00DD1FE12026270050462A
:10153000761BB740E84007435046B040461EB041D6
:10154000EC403843171ABA4292410C1B5242A41A7B
:10155000664698468BE6644667462C4300D08BE689
:10156000002500260027EAE61E00ADE61F2B60DC02
:101570002027F81A0F00844687401000D840074300
:1015800060468240501E8241D9401743F5E626004E
:101590005046064305D0ED43002DD3D0904EB445C0
:1015A000BDD10C001700664698468DE68C488342F4
:1015B0000BD06346D9E6002D00D096E0080010431A
:1015C00000D1E2E00C0017009846854E7CE600252D
:1015D00080E700218EE7230050460343002E00D011
:1015E000A8E0002B00D1DEE00B00134300D16BE636
:1015F0005244524580416418404224181700230287
:1016000000D4FDE6774B66461C405DE6250050465B
:101610000543002ECFD1002D4FD10C00144300D133
:10162000A0E00C00170098464EE66646002400270E
:1016300085E61F000800203FF8400700202B00D15E
:101640008EE04020C31A99400A43511E8A4100216E
:10165000174392E6002E14D126005046064362D06E
:10166000DB43002B5CD187189742924164185242A9
:10167000A418664687E650462043441EA041002435
:1016800060E7574EB4454ED0802636045B42344363
:10169000382B00DD7FE01F2B00DD8BE020262700AC
:1016A0005046F61AB740D84007435046B040461E51
:1016B000B0410743DC40BF18D6E70D00154300D109
:1016C00002E65046801A8245BF41651A7F42ED1BF3
:1016D0008446280200D48DE65046171ABA42924139
:1016E0000C1B5242A41A9846EEE50D00154300D19A
:1016F0006BE750466707C00807438020E4080003F3
:10170000044207D0CD08054204D12C009846D708E2
:1017100049070F437B0FE4001C43FF00304ED3E525
:101720002F4EB445B4D10C0017006646CCE5002717
:101730000024E8E5002B39D00B00134300D144E727
:10174000C008670707438020E40800030442E1D093
:10175000CB080342DED1D70849070F431C00D9E765
:10176000002171E700250027E9E52E002700203E33
:10177000F740202D2FD04026751BAC40504620430B
:10178000441EA04100243843DCE6802400252403C5
:10179000134E0027D3E5504620430700781E8741AB
:1017A0000024BF1860E70C0017008DE50C0017003F
:1017B0000B4E89E51E002700203EF740202B0CD061
:1017C0004026F31A9C4050462043441EA041074344
:1017D0000024BF1848E70024D0E70024F3E7C04600
:1017E000FF070000FFFF7FFF30B5134D0A034B00DA
:1017F000120B5B0DC90F0024AB4210DD0F4CA3424E
:101800000FDC80240E4D64032243ED1A1F2D0BDDE7
:101810000C48C31ADA405442002900D114002000B9
:1018200030BD094BCC18FAE7084CE840A4466344A5
:101830009A400243EFE7C046FE0300001D0400008B
:101840003304000013040000FFFFFF7FEDFBFFFFE8
:1018500070B5002830D0C317C4185C40C50F2000F5
:1018600000F014F9174B184A1B1AD21A1F2A18DD58
:10187000164AD21A9440002224035B05240B5B0D08
:101880000021100024030A0D240B12052243104CE2
:101890001B05224013435B00ED075B082B43190037
:1018A00070BD210091400A000B21081AC4405B055D
:1018B0002403240B5B0DE3E7002500230024002212
:1018C000DEE7C0461E0400003304000013040000DD
:1018D000FFFF0F804100090E4B1C70B5DBB24602C2
:1018E000750AC40F012B14DDE0239B006D07360B36
:1018F000CB1800210A0D280012051C4D32435B0550
:101900002A405B0813435B00E4075B08234319008C
:1019100070BD002914D1002D1ED0280000F0B6F8AB
:101920000A281CDC0B232A001B1ADA40030015339B
:101930009D400F4B12031B1A5B05160B5B0DD8E77E
:10194000002D06D0320B802636036D071643094B57
:10195000CFE7084B0026CCE700230026C9E70300A9
:101960002A000B3B9A400025E3E7C046FFFF0F80AB
:1019700089030000FF070000F0B54C00640D0B0365
:10198000621C450F5B0A52052B43C90FC500520D5F
:10199000012A28DD3A4AA618FE2E1BDC002E3EDD69
:1019A00080010200501E82416D0F2A43DB00134369
:1019B0005A0704D00F221A40042A00D00433802290
:1019C000D2041A405AD00136FF2E03D09B015B0A85
:1019D000F4B201E0FF2400235802E405400AC907DD
:1019E00020430843F0BD002C07D01D43F2D08020D7
:1019F000DB0080040343FF26DAE72B4303D00523F3
:101A0000DB08FF2C03D05B025B0AE4B2E4E7002BA7
:101A100032D08020C00303435B025B0ADCE7320064
:101A2000173214DB80221E2712041343BF1B1F2F03
:101A30000FDC144A944664442A00A5402E00A340BB
:101A4000751EAE41FA40334313430026B0E700242D
:101A5000D5E702225242961B1A00F240202F09D0ED
:101A6000094884466444A3402B435D1EAB410026D5
:101A700013439DE70023F7E70023ADE73400BFE7FA
:101A800080FCFFFF82FCFFFFA2FCFFFF1C21012363
:101A90001B04984201D3000C10391B0A984201D351
:101AA000000A08391B09984201D30009043902A22F
:101AB000105C40187047C046040302020101010196
:101AC00000000000000000000023C25C0133002A77
:101AD000FBD1581E7047000070B50500FA200D4E6E
:101AE00080003178FEF726FB0B4B01001868FEF7EB
:101AF00021FB00F077F804000120002C08D1032D11
:101B000006D802382200290000F03CF82000756059
:101B100070BDC046000000200C0000201023064AC3
:101B200010B5116800200B431360FFF7D5FF01F0DB
:101B300067FB002010BDC04600200240034A044B52
:101B400011681B785B1813607047C046A400002022
:101B500000000020014B18687047C046A400002018
:101B600070B50400FFF7F6FF0500631C02D0044BBC
:101B70001B78E418FFF7EEFF401B8442FAD870BDD3
:101B80000000002070B58901002812DB8308134A89
:101B900003249B009B18FF222040A0401400C02576
:101BA000844011408140AD005E59A64331435951F4
:101BB00070BD03240F23C0B203402040A040FC347A
:101BC0002500214085408140083B054A9B089B0039
:101BD0009B18DA69AA431143D961E9E700E100E003
:101BE00000ED00E0094A431E012093420DD8C021B8
:101BF000074A08485360036A09061B021B0A0B4385
:101C0000036200200723906013607047FFFFFF000E
:101C100010E000E000ED00E0F0B50B6887B0029343
:101C200000230191029ADA4001D107B0F0BD0122F0
:101C30009A4003920399029A0A40009200D18CE0E4
:101C4000019A1021526816008E43022E0ED10725EC
:101C50001D40AD000139A940DC08A4000419276A21
:101C60008F4301990969A9400F43276203245F004C
:101C7000BC40E4430568013E2540AC4603251540C1
:101C8000BD4061460D430560012E0FD8019986685D
:101C9000CD682640BD4035438560466803991509E7
:101CA0008E4301210D409D4035434560C568019933
:101CB0002C408D688021BD4049052C43C4600A42F8
:101CC0004BD00121264C0326A5691E400D43A5617A
:101CD000A4699D080C400594059C0F242149AD0082
:101CE000B6006D18B4409021AF68C905A743002421
:101CF00088420CD01C490134884208D01B49013469
:101D0000884204D01A490334884200D1023CB440CE
:101D100000993C430E00AC60164CCD4327683E430F
:101D2000D10301D43E002E4026606768009E3E43EA
:101D3000910301D43E002E406660A768009E3E439A
:101D4000D10201D43E002E40A660E668009F3743D2
:101D5000920201D42E403700E760013362E7C046AB
:101D60000010024000000140000400480008004844
:101D7000000C004800040140F0B50023032785B0A3
:101D80000291029ADA4001D105B0F0BD01229A40D9
:101D900002990092114053D02A4C9A081D009200DB
:101DA00012190F243D40AD00AC40966801942640C6
:101DB000039690260024F605B0420FD0224CA4468C
:101DC000012460450AD0214CA4460224604505D078
:101DD0001F4CA4463C00604500D00524AC40039D48
:101DE000A54211D1C9431B4C25680D40256065688B
:101DF0000D406560A5680D40A560E5682940E1607B
:101E00009168019CA14391603C0059008C40E143E2
:101E100007240F261C40A400A6400268009C0A402C
:101E20000260DA0892008218156AB543156282686A
:101E30000A4082604268A2434260C2681140C160A9
:101E400001339EE7000001400004004800080048FC
:101E5000000C004800040140002A01D08161704755
:101E60008162FCE7F0B5040085B0002802D10120B2
:101E700005B0F0BD0368DB072ED423689B077ED432
:101E800023681B0700D5BAE023685B0700D5DDE0B7
:101E90002368DB061AD56269B44D0423012A00D0F9
:101EA00049E1696B02260B436B636B6B1A436A63F0
:101EB000FFF750FE07006B6B334200D134E1F8218D
:101EC0006A6BA3698A43DB0013436B63236A002BAD
:101ED00000D057E10020CBE70C21A44D6A680A40EE
:101EE000042A06D06B680B40082B09D16B68DB0312
:101EF00006D52B689B03C0D56368002BBDD1B6E720
:101F00006368012B13D180232A685B0213432B6083
:101F1000FFF720FE80260700B6022B683342ACD1C3
:101F2000FFF718FEC01B6428F7D90320A0E7002B99
:101F300015D12B688E4A802613402B602B688D4A62
:101F4000B60213402B60FFF705FE07002B683342F3
:101F500093D0FFF7FFFDC01B6428F7D9E5E7052BF9
:101F600005D180232A68DB0213432B60CBE72B6863
:101F70007F4A13402B602B687E4A1340C7E70C2230
:101F80007A4D6B68134206D06B681340082B11D151
:101F90006B68DB030ED42B689B0703D5E368012B2A
:101FA00000D064E7F8212A6823698A43DB001343E1
:101FB0002B6065E7E2680123002A0FD02A68022619
:101FC00013432B60FFF7C6FD07002B683342E9D1AE
:101FD000FFF7C0FDC01B0228F7D9A6E72A68022632
:101FE0009A432A60FFF7B6FD07002B68334200D101
:101FF00046E7FFF7AFFDC01B0228F6D995E7E26977
:1020000001235A4D002A10D06A6A022613436B62DC
:10201000FFF7A0FD07006B6A334200D034E7FFF7FB
:1020200099FDC01B0228F6D97FE76A6A02269A4307
:102030006A62FFF78FFD07006B6A334200D123E726
:10204000FFF788FDC01B0228F6D96EE78022002129
:10205000464D5205EB690091134208D1EB691343D9
:10206000EB61EB6913400393039B012300938027EB
:10207000414E7F0033683B4206D0A368012B13D149
:102080002A6A13432B6230E033683B433360FFF727
:1020900061FD019033683B42EFD1FFF75BFD019B8F
:1020A000C01A6428F6D940E70122002B14D12B6A0C
:1020B000022793432B622B6A033293432B62FFF771
:1020C00049FD06002B6A3B4225D0FFF743FD2B4B11
:1020D000801B9842F6D928E7052B0BD1296A013BD2
:1020E0000B432B622B6A1A432A62FFF733FD022748
:1020F00006000DE02B6A934304222B622B6A934364
:10210000C0E7FFF727FD1D4B801B984200D90CE765
:102110002B6A3B42F5D0009B012B00D0B8E6EB695F
:10212000174A1340EB61B3E6FFF714FDC01B02280A
:1021300000D8C0E6F9E6053203D16A6B9A436A63B8
:10214000BDE66A6B0226134301226B636B6B9343FC
:102150006B63FFF7FFFC07006B6B334200D1B5E602
:10216000FFF7F8FCC01B0228F6D9DEE6001002409B
:10217000FFFFFEFFFFFFFBFF007000408813000021
:10218000FFFFFFEF0C20354A516815000140082978
:1021900047D0334A022B32D12B68802613402B6064
:1021A000FFF7D8FC0700B6042B68334221D10F2279
:1021B000EB6A9343E26A1343EB62616AA36A6A685B
:1021C0000B43284980240A4013436B6080232A680C
:1021D0005B0413432B60FFF7BDFC0600A4042B68CF
:1021E000234200D076E6FFF7B5FC801B0228F6D923
:1021F0009BE6FFF7AFFCC01B0228D5D995E62B68FC
:10220000802413402B60FFF7A5FC0600A4042B6874
:10221000234200D15EE6FFF79DFC801B0228F6D921
:1022200083E61800012B00D122E680215368656AFD
:102230004902D26A19400120A94200D018E60F21B4
:102240000A40E16A8A4200D012E6F020800303408F
:10225000A06A1B1A581E8341D8B209E6001002403A
:10226000FFFFFFFEFFFFC2FF70B5144C88B01022C5
:102270002100684601F04EF9210004AD1022103112
:10228000280001F047F90C220D4E73681A40082A05
:1022900011D10F206A46990C0140545CF26A024049
:1022A000A95CDB0305D50748FDF744FF604308B090
:1022B00070BD0548FAE70348F9E7C046803D0008CD
:1022C0000010024000127A0000093D00F7B5050039
:1022D0000F00002801D10120FEBD0122374C2368E8
:1022E00013408B421CD329688B0722D4CB072FD4F1
:1022F000012322681A40974251D32B68304C5B0768
:1023000054D4FFF7B1FF63682E4A1B061B0FD35C42
:10231000D8402D4B18600020FFF7DEFB0020DBE7E4
:10232000236893430B432360236813409942D2D11F
:10233000D9E7234A4B0704D5E0235068DB00034369
:102340005360F02053688343A86803435360CDE78C
:102350001B4E6A683368012A19D19B03BBD5032140
:1023600073688B4313437360FFF7F4FB01900C23F6
:1023700072681A406B689B009A42B9D0FFF7EAFB7B
:10238000019BC01A114B9842F1D90320A4E7022AFD
:1023900002D19B01E3D49EE79B07E0D49BE7226830
:1023A0009A43226022681A4295D1A6E76368084AD8
:1023B0001340EA6813436360A3E7C046002002406D
:1023C00000100240A43D00080C000020881300000B
:1023D000FFF8FFFF044B054A5B685B055B0FD35CAE
:1023E000034A1068D840704700100240B43D00080E
:1023F0000C000020F0B5036885B00500DB0328D58C
:1024000080220021374C5205E3690091134208D124
:10241000E3691343E361E36913400393039B0123DF
:1024200000938027304E7F0033683B4226D0C02285
:10243000236A920013402D4E32D1236A1E406B68EE
:102440001E43009B2662012B03D1E369284A1340F7
:10245000E3612A68D30706D5032022490B6B834327
:10246000A86803430B630020930617D510211D4A6B
:10247000136B8B43E9680B4313630FE033683B43F3
:102480003360FFF767FB019033683B42CFD1FFF722
:1024900061FB019BC01A6428F6D9032005B0F0BD8A
:1024A00069680A409342C8D08023226A206A1100DA
:1024B0005B0203432362236A0E48314003402362D8
:1024C0002162D307B9D5FFF745FB07000222236A33
:1024D0001342B2D1FFF73EFB074BC01B9842F5D920
:1024E000DBE7C0460010024000700040FFFCFFFF29
:1024F000FFFFFFEFFFFFFEFF88130000E0210368EE
:1025000010B55A688A435A6082224168520091424B
:102510000CD18021826809028A4203D08021C9003F
:102520008A4203D140211A688A431A608021826A54
:1025300089018A4206D11968074C2140196019683F
:102540000A431A60030001225D331A7000235C30D5
:102550000370032010BDC046FFDFFFFFF8B5040085
:102560000D001700802623689868304009D06A1C47
:10257000FAD0FFF7EFFAC01B8542F4D82000FFF72E
:10258000BDFFF8BDF7B5C02705000C00160001938C
:10259000FF002B68986820400DD0BC4200D11A7B08
:1025A000721CF7D0FFF7D6FA019BC01A8642F0D80A
:1025B0002800FFF7A3FFFEBD70B513000D00160045
:1025C0000A00C02149010400FFF7DCFF002805D004
:1025D0002023226E0320134323660FE032002900DC
:1025E0002000FFF7BBFF0028F2D1C02133002A00F2
:1025F000C9002000FFF7C6FF0028E9D170BD000028
:10260000F8B504000120002C4BD000232500A36264
:102610005D352B78DBB2002B05D122005C321370C4
:10262000200000F005FE0223402221682B700B6879
:10263000002093430B60E023E268DB009A4231D92B
:10264000F0263601B24233D10600206B002803D1B8
:102650009A422FD902232363A7686368A0693B438A
:1026600027693B4367693B43E7693B43276A3B4331
:10267000A76A3B438027BF0007403B430B60636A68
:10268000000C1A43636B1A4304231840104306439B
:102690004E60CB69084A00201340CB6101232066BD
:1026A0002B70F8BD802676019A42CED0A062CCE78E
:1026B0000600FBE70123CEE7FFF7FFFFF0B587B089
:1026C000019303005C3303931B7804000D00170093
:1026D0000226012B00D17CE00123039A1370FFF73F
:1026E00039FA220002905D321378DBB2012B6AD1F5
:1026F0001E00002D67D0002F65D002331370002319
:10270000A21D23662364A563A787E7870232938708
:10271000D3872365E3648023A2681B029A4205D114
:1027200080232268DB0111680B4313604022236879
:102730001968114202D119680A431A60E021E06861
:10274000C9006268884247D9002A01D0012F07D109
:102750002A880235DA60E38FA563013B9BB2E387E9
:102760000225E38F002B16D1029A01992000FFF772
:1027700023FF002800D06DE0A368002B06D105934D
:102780002368DA6805929B680593059B266E731E85
:102790009E41F6B217E0226893682B4209D0A36BE2
:1027A00019880233D160A363E38F013B9BB2E387B7
:1027B000D7E7FFF7CFF9029BC01A019B9842D0D30D
:1027C0000133CED0032601235D3423700023039A06
:1027D0001370300007B0F0BD002A01D0012F0AD1DC
:1027E000E28F012A1CD92A880235DA60E38FA563BB
:1027F000023B9BB2E3870225E38F002BB4D0226813
:1028000093682B421CD0E18FA36B012910D9198842
:102810000233D160A363E38F023B9BB2E387EBE714
:102820002A781A73A36B0133A363E38F013BE0E7BC
:102830001B781373A36B0133A363E38F013BECE7B6
:10284000FFF788F9029BC01A019B8342D4D8013359
:10285000D2D0B7E7202323668EE7000070B50400CE
:102860002569A36802682B436569C1692B43106819
:102870003E4D0B4328400343136053683C48256A90
:102880000340E06803435360A36990682B43394DCC
:102890002840034393600322374B384D1B6B134092
:1028A000374AD05C80231B02994235D1082826D8AC
:1028B000FDF736FC05250B251D2525252000FFF7F6
:1028C00089FD636840005B0802E0636858082D4B8F
:1028D000C0186168FDF72EFC83B200201A00103A80
:1028E000AA420FD9012000232366636670BDFFF75B
:1028F000BBFCE6E76368580880235B02E8E7012039
:102900000023EBE70F22190091430A001B072168FF
:102910005B0F1343CB60E6E7082823D8FDF700FCE4
:1029200005220A221A2222221D00FFF753FD6368A6
:102930005B0802E063685808134BC0186168FDF734
:10294000F9FB83B200201A00103AAA42CAD82268C2
:10295000D360C8E7FFF788FCE9E76368580880237D
:102960001B02EAE701200023EDE7C046F369FFFF01
:10297000FFCFFFFFFFF4FFFF00100240EFFF00005A
:10298000A03D00080024F40000127A00436A30B52C
:10299000DA0706D50168284C4A682240846A224337
:1029A0004A609A0706D50168244C4A682240C46AE6
:1029B00022434A605A0706D50168214C4A682240E2
:1029C000046B22434A601A0706D501681D4C4A6809
:1029D0002240446B22434A60DA0606D501681A4C4D
:1029E0008A682240846B22438A609A0606D5016871
:1029F000164C8A682240C46B22438A605A0610D55E
:102A00000168134D4A68046C2A4022434A608022C0
:102A10005203944205D14A680E4C2240446C224332
:102A20004A601B0606D502680B4953680B40816C4F
:102A30000B43536030BDC046FFFFFDFFFFFFFEFFAD
:102A4000FFFFFBFFFF7FFFFFFFEFFFFFFFDFFFFF4A
:102A5000FFFFEFFFFFFF9FFFFFFFF7FFF7B58027A7
:102A600004000E00150001933F012268D369334032
:102A70009B1B59424B41AB4201D000201CE0089BFC
:102A80000133F3D0FFF766F8019B089AC01A236858
:102A9000824201D3002A10D11A6813490A401A60F1
:102AA0009A68A331FF318A439A6020236367A36742
:102AB0000023032070342370FEBD04211A680A42EB
:102AC000D3D0DA693A42D0D01F621A6806490A4068
:102AD0001A609A68A331FF318A439A6020236367A2
:102AE000A367E367E4E7C0465FFEFFFFF0B587B08A
:102AF0000593436F04000D0017000220202B49D1DD
:102B00000138002946D0002A44D08023A2685B0106
:102B10009A4204D12369002B01D101423AD123000A
:102B200070331A780220012A34D0012200261A704C
:102B30002123E6676367FFF70DF8230050331F80FA
:102B4000023303931F808023A26804905B019A42A2
:102B500004D12369B34201D12E001D00230052335A
:102B60001A88059B92B20093049B002A0AD1402147
:102B70002000FFF773FF00280BD12023703463601F
:102B8000207007E0002280212000FFF767FF002867
:102B900002D0032007B0F0BD2268002D0BD133888E
:102BA0000236DB05DB0D1385039B039A1B88013B73
:102BB0009BB21380D2E72B7801351385F4E7000030
:102BC00073B500260400C667FEF7C4FF236805003E
:102BD0001B681B0715D423681B685B070AD5802177
:102BE0000E4B00220093C9032B002000FFF736FF95
:102BF000002811D1202300206367A3677034207060
:102C00000BE08021054B3200009389030300200074
:102C1000FFF724FF0028DED0032076BDFFFFFF0171
:102C200010B5041E01D1012010BD436F002B04D14B
:102C300002007032137000F02BFB24230121226864
:102C40006367136820008B431360FFF707FE0128BA
:102C5000E9D0636A002B02D02000FFF797FE2368BB
:102C600007495A6820000A4008215A609A688A4336
:102C70009A60012219680A431A60FFF7A1FFD3E79F
:102C8000FFF7FFFF13B5074B019007491868FDF7E1
:102C900051FA019C44430194019B5A1E0192002B5E
:102CA000FAD113BD0C00002000093D0010B590249E
:102CB000E40510212000FFF75FF88023A2685B0085
:102CC0001A43A2608022A16892000A43A26022688F
:102CD0001343236010BD70B590241025E620E40551
:102CE0006369FF30AB436361FFF7CCFF6369412049
:102CF0001D436561FFF7C6FFFA2024694000FFF716
:102D0000C1FFE006C00F70BD70B590241025E4052A
:102D100063690220AB436361FFF7B4FF63690D2071
:102D20001D436561FFF7AEFF24692D20FFF7AAFF61
:102D3000E006C00F70BD70B500252C00FFF7E4FF62
:102D4000A84001352418E4B2082DF7D1200070BD49
:102D500070B590251021ED056A6904008A436A6107
:102D60000320002C00D13E30FFF78CFF10236A694E
:102D7000412013436B61002C00D13E38FFF782FFE6
:102D800070BD70B5060000240125300020412840A8
:102D9000FFF7DEFF01340520FFF774FF082CF4D1A4
:102DA00070BD70B50500FFF796FF041E12D1002D0F
:102DB0000ED1CC20FFF7E5FF4E20FFF7E2FF6420A5
:102DC000FFF7DFFF9E20FFF7DCFF7F20FFF7D9FF33
:102DD000200070BD0124FBE710B50400FFF77BFF66
:102DE000002C02D1CC20FFF7CCFF4420FFF7C9FF15
:102DF00010BD70B505000C00FFF76DFF002D02D16E
:102E0000CC20FFF7BEFFBE202500FFF7BAFF083534
:102E1000FFF791FF20700134AC42F9D170BD00057D
:102E2000C00F704703B210B5002B10DA404280B2D9
:102E3000FEF70EFD0022094BFDF740FF02000B00DC
:102E400000200021FEF7BAF9FEF796FD10BDFEF74F
:102E5000FFFC0022014BFDF731FFF5E70000B03F1A
:102E600030B5102495B03022002108A800F05BFB9B
:102E700022000021684600F056FB2200002104A831
:102E800000F051FB012502230C9408A800240893AC
:102E90000B95FEF7E7FF0723210068460093019496
:102EA00002940394FFF712FA04A804950694FFF71E
:102EB000A1FA15B030BD0000F0B58FB009ACFEF737
:102EC0002DFEFFF7CDFF14220021200000F02BFB88
:102ED0008020844A80025169002501435161536971
:102EE00040210340902000220893C005089BFEF774
:102EF000B3FF902010262100C00509966560A560EB
:102F0000FEF78AFE9020012740232100C005099387
:102F1000A560E5606760FEF77FFE7348734B05614F
:102F2000036082235B00436080231B028360E023F5
:102F3000DB00C36080239B008361FA3BFF3BC362DD
:102F4000DB194561C66105624562856205634363BD
:102F5000FFF756FB664E674B3000336096231B022B
:102F600073600C23B5607361F5603561B561F5611F
:102F700035627562FFF754FEFFF798FE2800FFF7F1
:102F800010FF5D4D02005D49280000F0D5FA2800D1
:102F9000FEF79AFD802382B25B0129003000FFF723
:102FA000A5FDC820FEF7DCFD00F010F9390038005F
:102FB00000F0ACF80221080000F0A8F80321080096
:102FC00000F0A4F80421080000F0A0F80521080092
:102FD00000F09CF80621080000F098F8072108008E
:102FE00000F094F80821080000F090F8FA20C000E2
:102FF000FEF7B6FD00F0B4F8414800F0BFF8FA2043
:10300000C000FEF7ADFD00F0ABF83900380000F06D
:103010007DF80221080000F079F80321080000F093
:1030200075F80421080000F071F80521080000F08F
:103030006DF80621080000F069F80721080000F08B
:1030400065F80321082000F061F8FA20C000FEF7BF
:1030500087FD00F085F800210800FFF7BDFEC820BD
:103060008000FEF77DFD002221001000FFF7C1FE69
:10307000E179637822780591A1792800049161793A
:10308000039121790291E1780191A17800911D4984
:1030900000F052FA6678237836021E433000FFF7BC
:1030A000BEFE2D230793002801D1023B0793300079
:1030B000FFF7B8FEFEF70EFC00F06AF906000F00FD
:1030C0009620FEF74DFD39003000FEF78DFB079A84
:1030D00043B20D49280000F02FFA9620FEF740FD7C
:1030E000B9E7C046001002406401002000300140F2
:1030F000A80000200038014028010020FC3D000805
:10310000FCEEFFFF0E3E0008433E0008F7B5902599
:103110000600ED052800019100224021FEF79CFEEB
:103120000C4C0D4F26700D4E3B002100300001224B
:10313000FFF7C4FA6B461B792100237030003B0077
:103140000122FFF7BBFA280001224021FEF784FE8E
:10315000F7BDC046900000208813000064010020E5
:1031600010B5054B1C782000013C0F21E4B2FFF79D
:10317000CDFF002CF7D110BD08000020F7B50026C8
:103180000190019BB34203DA019B01365B4201933C
:1031900000240A2701983900FDF73CF9651CEDB2BF
:1031A000C9B22800FFF7B2FF01983900FDF74CF8CB
:1031B0000190019B002B07D1002E04D00234E0B215
:1031C0000A21FFF7A3FFF7BD2C00E3E710B5FF21AD
:1031D0000920FFF79BFF094B0B2019780139C9B271
:1031E000FFF794FF02210A20FFF790FF01210C2036
:1031F000FFF78CFFFFF7B4FF10BDC04608000020AA
:1032000001200A4B82B099690143996180219A6932
:10321000490502400092009ADA690A43DA61DB69E3
:103220000B400193019B02B07047C0460010024062
:1032300010B5040088B01422002103A800F073F92F
:10324000114B22689A421DD18020104B4001996990
:103250000143996180219A69890202400192019A91
:103260005A6990200A435A615B69C0050B4002937A
:10327000029BA02303939E3B049303A9013306936F
:10328000FEF7CAFC08B010BD00300140001002403B
:1032900010B5040088B01422002103A800F043F9FF
:1032A000124B22689A421FD18020114BC0019969AC
:1032B0000143996180219A69890202400192019A31
:1032C0005A6990200A435A615B69C0050B4002931A
:1032D000029B0C2303930A3B04930133069303A937
:1032E000023B0793FEF798FC08B010BD0038014080
:1032F000001002407047FEE77047704710B5FEF7B8
:103300001DFC10BD0A4B10B519680200002901D13F
:10331000084919606946186882188A4206D900F07F
:10332000CFF80C2303600120404210BD1A60FCE777
:1033300094000020D0010020704700000D48854611
:103340000D480E490E4A002302E0D458C4500433FD
:10335000C4188C42F9D30B4A0B4C002301E01360D4
:103360000432A242FBD3FFF7E7FF00F0AFF8FFF70C
:10337000A3FDFEE7001000200000002074000020E4
:10338000883E000874000020CC010020FEE7000009
:10339000454AF8B5574692464B005B0D9A444E4657
:1033A0004546DE465246E0B50C0005000E00894653
:1033B0000700132A22DC002A47DB52463B4B13410D
:1033C00098460B0042461340034311D0384A394B0C
:1033D000FDF764F800220023FDF74CF8002805D023
:1033E000002C41DB4E46434600279E433800310007
:1033F0003CBC90469946A246AB46F8BD5246332A9D
:1034000008DD8023DB009A45F2D102000B00FDF7B6
:1034100045F8EDE7284A9446012263445242DA40D7
:1034200093460242E4D0224A224BFDF737F80022AD
:103430000023FDF71FF80028D8D0002C1ADB5B46CC
:103440004E469F4338003100D2E7194A194BFDF729
:1034500025F800220023FDF70DF80028C6D0002C27
:1034600016DB00270026C1E7802352465B03134189
:103470009944B7E75346142B12D034235246012700
:103480009B1A9F407F19AF429B415B429944D6E70C
:103490006400640825430027002DA7D0074EA5E748
:1034A000133B9C46E144CAE701FCFFFFFFFF0F000E
:1034B0009C7500883CE4377EEDFBFFFF0000F0BF09
:1034C000014B18687047C0461000002070B50026F8
:1034D0000C4D0D4C641BA410A64209D1002600F02F
:1034E00043FC0A4D0A4C641BA410A64205D170BDD2
:1034F000B300EB5898470136EEE7B300EB58984716
:103500000136F2E7803E0008803E0008803E000859
:10351000843E0008002310B59A4200D110BDCC5C57
:10352000C4540133F8E703008218934200D1704776
:1035300019700133F9E700000EB410B59DB002A96F
:10354000029008610B488224886048610120404253
:103550001FABC881084804CBA400006801938C818C
:1035600000F06EF80023029A13701DB010BC08BC66
:1035700003B01847FFFFFF7F10000020F0B58E68F2
:1035800085B007000C00039201939E4239D8902326
:103590008A89DB001A4234D00325096923685B1A43
:1035A0000293636902985D43EB0F5D19019B6D10F7
:1035B00001331B18AB4200D91D00530532D5290039
:1035C000380000F031FB061E09D10C233B6040237C
:1035D0000120A28940421343A38105B0F0BD029AA5
:1035E0002169FFF797FFA389144A1A4080231343E8
:1035F000A381029B2661F61826606561019EED1A83
:10360000A560019BB34200D21E00320003992068DE
:1036100000F0ADFAA36800209B1BA36023689E19ED
:103620002660DAE72A00380000F05CFB061EE0D1D5
:103630002169380000F0AEFAC7E7C0467FFBFFFF04
:10364000F0B59FB0029005938B890F0016001B0602
:1036500011D50B69002B0ED1402100F0E5FA38603E
:103660003861002805D10C23029A013813601FB07D
:10367000F0BD40237B61002306AD6B6120336B7688
:103680001033AB7634002378002B47D1A31B04936F
:103690000DD0A31B320039000298FFF76FFF431CC7
:1036A00000D1B5E06A69049B944663446B6123785A
:1036B000002B00D1ACE00122002352426A6002A933
:1036C0005432521801342B60EB60AB601370AB6561
:1036D000584E05222178300000F03EFA621C002886
:1036E00020D12968CB0604D5532302AE20309B1984
:1036F00018700B0704D553232B2002AE9B191870AA
:1037000023782A2B16D000200A21099B2278303AF0
:10371000092A55D9002815D0099313E0252BB5D0D7
:103720000134B0E70123801B8340296814000B4358
:103730002B60CDE7059B181D1B680590002B39DB1E
:103740000993140023782E2B0BD16378621C2A2B4B
:103750003ED1059B02341A1D1B680592002B34DBF9
:103760000793354E21780322300000F0F5F9002848
:1037700006D04023801B83402A68013413432B600A
:10378000217806222D48661C297600F0E5F90028EC
:1037900046D02B4B002B2FD12968059B0722C9054A
:1037A00028D59B189343083305936B69039A9B189C
:1037B0006B6167E75B42EB6002230B432B60C0E762
:1037C0004B4301349B180120A0E701235B42C7E76C
:1037D000002314000A201A006B602178303909296F
:1037E00003D9002BBDD00792BBE7424301345218E6
:1037F0000123F2E70733D5E705AB00933A00114BFD
:103800002900029800E000BF0390039B0133CCD154
:10381000BB890B985B0600D429E70120404226E7CC
:1038200005AB00933A00074B2900029800F07AF8A4
:10383000EAE7C0464D3E0008533E0008573E0008E8
:10384000000000007D350008F7B5150001938A6877
:103850000B6900900C00934200DA130022002B60E9
:1038600043321278002A01D001332B6023689B0673
:1038700002D52B6802332B60062723681F4027D010
:10388000230043331B785A1E93412268920630D49A
:103890002200019943320098089EB047431C25D06E
:1038A000062320682A68E16803400025042B03D121
:1038B0008D1AEB43DB171D40A3682269934201DD9B
:1038C0009B1AED180027BD4220D1002010E00137DF
:1038D000E3682A689B1A9F42D2DA22000123193238
:1038E00001990098089EB047431CF0D10120404246
:1038F000FEBD3020E1184331087021005A1C4531CB
:103900000978A218433202331170C1E72200012363
:103910001A3201990098089EB047431CE6D001373F
:10392000D1E70000F0B58BB006920A00433207934E
:10393000059004920A7E0C00109B6E2A00D18FE045
:1039400017D8632A2CD008D8002A00D199E0582A29
:1039500054D026004236327029E0642A01D0692A08
:10396000F7D121681A68080623D5111D196015685A
:1039700025E0732A00D188E008D86F2A29D0702A60
:10398000E7D1202209680A43226003E0752A20D08B
:10399000782ADED122007821453211706C4A30E05D
:1039A0000E001A684236111D196013683370012326
:1039B00079E04906D9D5111D19600023D55E002D87
:1039C00003DA2D23049A6D421370624B0A27039386
:1039D0002FE020681968050603D5081D18600D68DA
:1039E00005E04006F9D50D68081D1860ADB2594BC9
:1039F000082703936F2A18D00A2716E045310A706A
:103A0000544A03921A682168101D18601568080648
:103A100022D5CB0702D52023194321601027002D82
:103A200003D1202322689A432260230000224333DB
:103A30001A706368A360002B5CDB04222168914349
:103A40002160002D58D1049E002B64D02600039BDA
:103A500042361B7833705EE04806DAD5ADB2D8E75F
:103A600009681A68080605D5111D1960136862698E
:103A70001A6006E04906F7D5111D19601368A28A7D
:103A80001A800023049E236154E01A68111D1960F6
:103A9000166800216268300000F05EF8002801D04E
:103AA000801B6060636823610023049A137041E007
:103AB0002369320006990598079DA847431C43D007
:103AC000236800259B070FD4099BE06898423DDAE4
:103AD00018003BE022000123193206990598079E41
:103AE000B047431C30D00135E368099A9B1A9D42C8
:103AF000F0DBE9E7002DA9D0049E28003900FCF78F
:103B00009FFB039B013E5B5C280033703900FCF790
:103B100011FB051EF1D1082F09D12368DB0706D55B
:103B200063682269934202DC3023013E3370049BB8
:103B30009B1B2361079B09AA00932100069B059804
:103B4000FFF782FE431CB3D1012040420BB0F0BD11
:103B50006F3E00085E3E0008C9B28218904201D153
:103B60000020704703788B42FBD00130F6E710B598
:103B7000884202D98B18984208D300239A4207D072
:103B8000CC5CC4540133F9E78B5C8354013AFBD21B
:103B900010BD000070B50500002910D00C1F23686F
:103BA000002B00DAE418280000F0D4F81D4A13684E
:103BB000002B05D163601460280000F0CCF870BDC4
:103BC000A34209D9216860188342F3D118685B6861
:103BD00041182160EEE713005A68002A01D0A24282
:103BE000F9D919685818A0420BD12068091858183B
:103BF00019608242E0D110685268411819605A6019
:103C0000DAE7A04202D90C232B60D5E721686018BF
:103C1000824203D1106852684118216062605C6082
:103C2000CAE7C0469C000020032370B5CD1C9D430D
:103C3000083506000C2D1ED20C25A9421DD83000D7
:103C400000F088F8254A14682100002919D1244C75
:103C50002368002B03D1300000F06AF820602900AF
:103C6000300000F065F8431C2CD10C233000336089
:103C700000F071F803E0002DDFDA0C233360002040
:103C800070BD0B685B1B1AD40B2B03D90B60CC18CF
:103C9000256003E08C420ED163681360300000F0B1
:103CA0005AF8200007220B30231D9043C31AE7D097
:103CB0005A42E250E4E74B6863600C00EEE70C0008
:103CC0004968C2E70323C41C9C43A042E0D0211AE8
:103CD000300000F02DF8431CDAD1C6E79C0000202C
:103CE000A0000020F8B507000D001600002905D13E
:103CF0001100FFF799FF04002000F8BD002A03D14E
:103D0000FFF748FF3400F7E700F026F82C00864262
:103D1000F2D931003800FFF787FF041EECD02900EC
:103D20003200FFF7F7FB29003800FFF733FFE3E726
:103D3000002370B5064C050008002360FFF7E2FA87
:103D4000431C03D12368002B00D02B6070BDC046FC
:103D5000C8010020704770470B1F1B68181F002BFD
:103D600001DA0B58C0187047F8B5C046F8BC08BC5B
:103D70009E467047F8B5C046F8BC08BC9E467047E2
:103D800002030405060708090A0B0C0D0E0F10109C
:103D90000102030405060708090A0B0C0D0E0F109B
:103DA00000040802000000000000000001020304FB
:103DB000060708090000000001020304AC0E000819
:103DC0006C0D00086C0D0008680D0008840E0008DA
:103DD000840E0008760E0008680D0008840E0008A6
:103DE000760E0008840E0008680D00088C0E00088E
:103DF0008C0E00088C0E000890100008496E697443
:103E0000205374617475733A2025640D0A0053546D
:103E1000524154485041443A2025303258202530F0
:103E20003258202530325820253032582025303263
:103E3000582025303258202530325820253032582D
:103E40003B2000743D20256325640D0A00232D309E
:103E50002B2000686C4C0065666745464700303192
:103E600032333435363738394142434445460030E1
:103E70003132333435363738396162636465660010
:043E8000E90000084D
:043E8400C100000871
:103E880001000000040000000800000000127A0091
:103E980014000020000000000000000000000000E6
:103EA800000000000000000000000000000000000A
:103EB80000000000000000000000000000000000FA
:103EC80000000000000000000000000000000000EA
:103ED80000000000000000000000000000000000DA
:103EE80000000000000000000000000000000000CA
:043EF80000000000C6
:040000050800333D7F
:00000001FF
